{
  "contractName": "Adoption",
  "abi": [
    {
      "inputs": [
        {
          "name": "_t",
          "type": "address"
        }
      ],
      "payable": false,
      "stateMutability": "nonpayable",
      "type": "constructor"
    },
    {
      "constant": false,
      "inputs": [
        {
          "name": "petId",
          "type": "uint256"
        }
      ],
      "name": "adopt",
      "outputs": [
        {
          "name": "",
          "type": "uint256"
        }
      ],
      "payable": false,
      "stateMutability": "nonpayable",
      "type": "function"
    },
    {
      "constant": true,
      "inputs": [],
      "name": "getAdopters",
      "outputs": [
        {
          "name": "",
          "type": "address[16]"
        }
      ],
      "payable": false,
      "stateMutability": "view",
      "type": "function"
    },
    {
      "constant": false,
      "inputs": [],
      "name": "buyDogCoin",
      "outputs": [
        {
          "name": "",
          "type": "uint256"
        }
      ],
      "payable": true,
      "stateMutability": "payable",
      "type": "function"
    },
    {
      "constant": true,
      "inputs": [
        {
          "name": "account",
          "type": "address"
        }
      ],
      "name": "getBalance",
      "outputs": [
        {
          "name": "",
          "type": "uint256"
        }
      ],
      "payable": false,
      "stateMutability": "view",
      "type": "function"
    }
  ],
  "bytecode": "0x6080604052670de0b6b3a764000060015534801561001c57600080fd5b50604051602080610e0d8339810180604052602081101561003c57600080fd5b810190808051906020019092919050505080600360006101000a81548173ffffffffffffffffffffffffffffffffffffffff021916908373ffffffffffffffffffffffffffffffffffffffff16021790555033600260006101000a81548173ffffffffffffffffffffffffffffffffffffffff021916908373ffffffffffffffffffffffffffffffffffffffff16021790555060008090505b601081101561015b57600160008083815260200190815260200160002060000181905550600080600083815260200190815260200160002060010160006101000a81548173ffffffffffffffffffffffffffffffffffffffff021916908373ffffffffffffffffffffffffffffffffffffffff16021790555080806001019150506100d5565b5050610ca18061016c6000396000f3fe60806040526004361061003f5760003560e01c80633de4eb17146100445780633ea73753146100975780638588b2c5146100b5578063f8b2cb4f14610104575b600080fd5b34801561005057600080fd5b50610059610169565b6040518082601060200280838360005b83811015610084578082015181840152602081019050610069565b5050505090500191505060405180910390f35b61009f610216565b6040518082815260200191505060405180910390f35b3480156100c157600080fd5b506100ee600480360360208110156100d857600080fd5b81019080803590602001909291905050506104c5565b6040518082815260200191505060405180910390f35b34801561011057600080fd5b506101536004803603602081101561012757600080fd5b81019080803573ffffffffffffffffffffffffffffffffffffffff169060200190929190505050610ac9565b6040518082815260200191505060405180910390f35b610171610c31565b610179610c31565b60008090505b601081101561020e5760008082815260200190815260200160002060010160009054906101000a900473ffffffffffffffffffffffffffffffffffffffff168282601081106101ca57fe5b602002019073ffffffffffffffffffffffffffffffffffffffff16908173ffffffffffffffffffffffffffffffffffffffff1681525050808060010191505061017f565b508091505090565b6000600154341461028f576040517f08c379a000000000000000000000000000000000000000000000000000000000815260040180806020018281038252601d8152602001807f596f75206d75737420706179207468652065786163742070726963652e00000081525060200191505060405180910390fd5b600360009054906101000a900473ffffffffffffffffffffffffffffffffffffffff1673ffffffffffffffffffffffffffffffffffffffff1663a9059cbb3360016040518363ffffffff1660e01b8152600401808373ffffffffffffffffffffffffffffffffffffffff1673ffffffffffffffffffffffffffffffffffffffff16815260200182815260200192505050602060405180830381600087803b15801561033957600080fd5b505af115801561034d573d6000803e3d6000fd5b505050506040513d602081101561036357600080fd5b81019080805190602001909291905050506103e6576040517f08c379a00000000000000000000000000000000000000000000000000000000081526004018080602001828103825260168152602001807f546f6b656e207472616e73666572206661696c65642e0000000000000000000081525060200191505060405180910390fd5b600360009054906101000a900473ffffffffffffffffffffffffffffffffffffffff1673ffffffffffffffffffffffffffffffffffffffff166370a08231336040518263ffffffff1660e01b8152600401808273ffffffffffffffffffffffffffffffffffffffff1673ffffffffffffffffffffffffffffffffffffffff16815260200191505060206040518083038186803b15801561048557600080fd5b505afa158015610499573d6000803e3d6000fd5b505050506040513d60208110156104af57600080fd5b8101908080519060200190929190505050905090565b60008082101580156104d85750600f8211155b61054a576040517f08c379a000000000000000000000000000000000000000000000000000000000815260040180806020018281038252600e8152602001807f496e76616c69642050657420494400000000000000000000000000000000000081525060200191505060405180910390fd5b600073ffffffffffffffffffffffffffffffffffffffff1660008084815260200190815260200160002060010160009054906101000a900473ffffffffffffffffffffffffffffffffffffffff1673ffffffffffffffffffffffffffffffffffffffff1614610621576040517f08c379a00000000000000000000000000000000000000000000000000000000081526004018080602001828103825260128152602001807f50657420616c7265616479206f776e65642e000000000000000000000000000081525060200191505060405180910390fd5b60008083815260200190815260200160002060000154600360009054906101000a900473ffffffffffffffffffffffffffffffffffffffff1673ffffffffffffffffffffffffffffffffffffffff166370a08231336040518263ffffffff1660e01b8152600401808273ffffffffffffffffffffffffffffffffffffffff1673ffffffffffffffffffffffffffffffffffffffff16815260200191505060206040518083038186803b1580156106d657600080fd5b505afa1580156106ea573d6000803e3d6000fd5b505050506040513d602081101561070057600080fd5b81019080805190602001909291905050501015610785576040517f08c379a000000000000000000000000000000000000000000000000000000000815260040180806020018281038252601d8152602001807f596f75206d75737420706179207468652065786163742070726963652e00000081525060200191505060405180910390fd5b60008083815260200190815260200160002060000154600360009054906101000a900473ffffffffffffffffffffffffffffffffffffffff1673ffffffffffffffffffffffffffffffffffffffff1663dd62ed3e33306040518363ffffffff1660e01b8152600401808373ffffffffffffffffffffffffffffffffffffffff1673ffffffffffffffffffffffffffffffffffffffff1681526020018273ffffffffffffffffffffffffffffffffffffffff1673ffffffffffffffffffffffffffffffffffffffff1681526020019250505060206040518083038186803b15801561086e57600080fd5b505afa158015610882573d6000803e3d6000fd5b505050506040513d602081101561089857600080fd5b8101908080519060200190929190505050101561091d576040517f08c379a000000000000000000000000000000000000000000000000000000000815260040180806020018281038252601d8152602001807f596f75206d75737420617070726f766520746865207061796d656e742e00000081525060200191505060405180910390fd5b600360009054906101000a900473ffffffffffffffffffffffffffffffffffffffff1673ffffffffffffffffffffffffffffffffffffffff166323b872dd33600260009054906101000a900473ffffffffffffffffffffffffffffffffffffffff16600080878152602001908152602001600020600001546040518463ffffffff1660e01b8152600401808473ffffffffffffffffffffffffffffffffffffffff1673ffffffffffffffffffffffffffffffffffffffff1681526020018373ffffffffffffffffffffffffffffffffffffffff1673ffffffffffffffffffffffffffffffffffffffff1681526020018281526020019350505050602060405180830381600087803b158015610a3157600080fd5b505af1158015610a45573d6000803e3d6000fd5b505050506040513d6020811015610a5b57600080fd5b8101908080519060200190929190505050503360008084815260200190815260200160002060010160006101000a81548173ffffffffffffffffffffffffffffffffffffffff021916908373ffffffffffffffffffffffffffffffffffffffff160217905550819050919050565b60008073ffffffffffffffffffffffffffffffffffffffff168273ffffffffffffffffffffffffffffffffffffffff161415610b50576040517f08c379a0000000000000000000000000000000000000000000000000000000008152600401808060200182810382526021815260200180610c556021913960400191505060405180910390fd5b600360009054906101000a900473ffffffffffffffffffffffffffffffffffffffff1673ffffffffffffffffffffffffffffffffffffffff166370a08231836040518263ffffffff1660e01b8152600401808273ffffffffffffffffffffffffffffffffffffffff1673ffffffffffffffffffffffffffffffffffffffff16815260200191505060206040518083038186803b158015610bef57600080fd5b505afa158015610c03573d6000803e3d6000fd5b505050506040513d6020811015610c1957600080fd5b81019080805190602001909291905050509050919050565b60405180610200016040528060109060208202803883398082019150509050509056fe596f75206d7573742070726f7669646520612076616c696420616464726573732ea165627a7a72305820465b13a67e41c9e4326ba9d34b77f148c7fe7decff0d4fc4b1afd6d39cc9cf8a0029",
  "source": "pragma solidity ^0.5.0;\r\n\r\ncontract BasicERC20 {\r\n  function totalSupply() public view returns (uint256) {}\r\n  function balanceOf(address tokenOwner) public view returns (uint) {}\r\n  function transfer(address receiver, uint numTokens) public returns (bool) {}\r\n  function approve(address delegate, uint numTokens) public returns (bool) {}\r\n  function allowance(address owner, address delegate) public view returns (uint) {}\r\n  function transferFrom(address owner, address buyer, uint numTokens) public returns (bool) {}\r\n}\r\n\r\ncontract Adoption{\r\n  struct Pet {\r\n    uint petPrice;\r\n    address owner;\r\n  }\r\n\r\n  mapping(uint => Pet) pets;\r\n\r\n  uint dogcoinPrice = 1 ether;\r\n  address petShopOwner;\r\n  BasicERC20 dogcoin;\r\n\r\n  constructor(address _t) public{\r\n    dogcoin = BasicERC20(_t);\r\n    petShopOwner = msg.sender;\r\n\r\n      for(uint i=0; i<16; i++){\r\n          pets[i].petPrice = 1;\r\n          pets[i].owner = address(0);\r\n      }\r\n  }\r\n\r\n  // Adopting a pet\r\n  function adopt(uint petId) public returns (uint){\r\n    require(petId >= 0 && petId <=15, \"Invalid Pet ID\");\r\n    require(pets[petId].owner == address(0), \"Pet already owned.\");\r\n    require(dogcoin.balanceOf(msg.sender) >= pets[petId].petPrice, \"You must pay the exact price.\");\r\n    require(dogcoin.allowance(msg.sender, address(this)) >= pets[petId].petPrice, \"You must approve the payment.\");\r\n\r\n    dogcoin.transferFrom(msg.sender, petShopOwner, pets[petId].petPrice);\r\n    pets[petId].owner = msg.sender;\r\n\r\n    return petId;\r\n  }\r\n\r\n  // Retrieving the adopters\r\n  function getAdopters() public view returns (address[16] memory){\r\n    address[16] memory adopters;\r\n    for(uint i=0; i<16; i++){\r\n      adopters[i] = pets[i].owner;\r\n    }\r\n    return adopters;\r\n  }\r\n\r\n  function buyDogCoin() payable public returns (uint){\r\n    require(msg.value == dogcoinPrice, \"You must pay the exact price.\");\r\n    require(dogcoin.transfer(msg.sender, 1), \"Token transfer failed.\");\r\n    return dogcoin.balanceOf(msg.sender);\r\n  }\r\n\r\n  function getBalance(address account) public view returns (uint){\r\n    require(account != address(0), \"You must provide a valid address.\");\r\n    return dogcoin.balanceOf(account);\r\n  }\r\n}\r\n",
  "sourcePath": "D:/Documents/truffle-workspace/CIS233-PetShop/contracts/Adoption.sol",
  "compiler": {
    "name": "solc",
    "version": "0.5.8+commit.23d335f2.Emscripten.clang"
  },
  "schemaVersion": "3.0.16",
  "updatedAt": "2019-12-11T00:49:59.510Z",
  "devdoc": {
    "methods": {}
  },
  "userdoc": {
    "methods": {}
  }
}